{
  "_format": "hh-sol-artifact-1",
  "contractName": "UniswapV2Router",
  "sourceName": "contracts/UniswapV2Router.sol",
  "abi": [
    {
      "inputs": [
        {
          "internalType": "address",
          "name": "_factory",
          "type": "address"
        }
      ],
      "stateMutability": "nonpayable",
      "type": "constructor"
    },
    {
      "inputs": [
        {
          "internalType": "address",
          "name": "tokenA",
          "type": "address"
        },
        {
          "internalType": "address",
          "name": "tokenB",
          "type": "address"
        },
        {
          "internalType": "uint256",
          "name": "amountADesired",
          "type": "uint256"
        },
        {
          "internalType": "uint256",
          "name": "amountBDesired",
          "type": "uint256"
        },
        {
          "internalType": "uint256",
          "name": "amountAMin",
          "type": "uint256"
        },
        {
          "internalType": "uint256",
          "name": "amountBMin",
          "type": "uint256"
        },
        {
          "internalType": "address",
          "name": "to",
          "type": "address"
        },
        {
          "internalType": "uint256",
          "name": "deadline",
          "type": "uint256"
        }
      ],
      "name": "addLiquidity",
      "outputs": [
        {
          "internalType": "uint256",
          "name": "amountA",
          "type": "uint256"
        },
        {
          "internalType": "uint256",
          "name": "amountB",
          "type": "uint256"
        },
        {
          "internalType": "uint256",
          "name": "liquidity",
          "type": "uint256"
        }
      ],
      "stateMutability": "nonpayable",
      "type": "function"
    },
    {
      "inputs": [],
      "name": "factory",
      "outputs": [
        {
          "internalType": "address",
          "name": "",
          "type": "address"
        }
      ],
      "stateMutability": "view",
      "type": "function"
    },
    {
      "inputs": [
        {
          "internalType": "uint256",
          "name": "amountOut",
          "type": "uint256"
        },
        {
          "internalType": "uint256",
          "name": "reserveIn",
          "type": "uint256"
        },
        {
          "internalType": "uint256",
          "name": "reserveOut",
          "type": "uint256"
        }
      ],
      "name": "getAmountIn",
      "outputs": [
        {
          "internalType": "uint256",
          "name": "amountIn",
          "type": "uint256"
        }
      ],
      "stateMutability": "pure",
      "type": "function"
    },
    {
      "inputs": [
        {
          "internalType": "uint256",
          "name": "amountIn",
          "type": "uint256"
        },
        {
          "internalType": "uint256",
          "name": "reserveIn",
          "type": "uint256"
        },
        {
          "internalType": "uint256",
          "name": "reserveOut",
          "type": "uint256"
        }
      ],
      "name": "getAmountOut",
      "outputs": [
        {
          "internalType": "uint256",
          "name": "amountOut",
          "type": "uint256"
        }
      ],
      "stateMutability": "pure",
      "type": "function"
    },
    {
      "inputs": [
        {
          "internalType": "uint256",
          "name": "amountOut",
          "type": "uint256"
        },
        {
          "internalType": "address[]",
          "name": "path",
          "type": "address[]"
        }
      ],
      "name": "getAmountsIn",
      "outputs": [
        {
          "internalType": "uint256[]",
          "name": "amounts",
          "type": "uint256[]"
        }
      ],
      "stateMutability": "view",
      "type": "function"
    },
    {
      "inputs": [
        {
          "internalType": "uint256",
          "name": "amountIn",
          "type": "uint256"
        },
        {
          "internalType": "address[]",
          "name": "path",
          "type": "address[]"
        }
      ],
      "name": "getAmountsOut",
      "outputs": [
        {
          "internalType": "uint256[]",
          "name": "amounts",
          "type": "uint256[]"
        }
      ],
      "stateMutability": "view",
      "type": "function"
    },
    {
      "inputs": [
        {
          "internalType": "uint256",
          "name": "amountA",
          "type": "uint256"
        },
        {
          "internalType": "uint256",
          "name": "reserveA",
          "type": "uint256"
        },
        {
          "internalType": "uint256",
          "name": "reserveB",
          "type": "uint256"
        }
      ],
      "name": "quote",
      "outputs": [
        {
          "internalType": "uint256",
          "name": "amountB",
          "type": "uint256"
        }
      ],
      "stateMutability": "pure",
      "type": "function"
    },
    {
      "inputs": [
        {
          "internalType": "address",
          "name": "tokenA",
          "type": "address"
        },
        {
          "internalType": "address",
          "name": "tokenB",
          "type": "address"
        },
        {
          "internalType": "uint256",
          "name": "liquidity",
          "type": "uint256"
        },
        {
          "internalType": "uint256",
          "name": "amountAMin",
          "type": "uint256"
        },
        {
          "internalType": "uint256",
          "name": "amountBMin",
          "type": "uint256"
        },
        {
          "internalType": "address",
          "name": "to",
          "type": "address"
        },
        {
          "internalType": "uint256",
          "name": "deadline",
          "type": "uint256"
        }
      ],
      "name": "removeLiquidity",
      "outputs": [
        {
          "internalType": "uint256",
          "name": "amountA",
          "type": "uint256"
        },
        {
          "internalType": "uint256",
          "name": "amountB",
          "type": "uint256"
        }
      ],
      "stateMutability": "nonpayable",
      "type": "function"
    },
    {
      "inputs": [
        {
          "internalType": "uint256",
          "name": "amountIn",
          "type": "uint256"
        },
        {
          "internalType": "uint256",
          "name": "amountOutMin",
          "type": "uint256"
        },
        {
          "internalType": "address[]",
          "name": "path",
          "type": "address[]"
        },
        {
          "internalType": "address",
          "name": "to",
          "type": "address"
        },
        {
          "internalType": "uint256",
          "name": "deadline",
          "type": "uint256"
        }
      ],
      "name": "swapExactTokensForTokens",
      "outputs": [
        {
          "internalType": "uint256[]",
          "name": "amounts",
          "type": "uint256[]"
        }
      ],
      "stateMutability": "nonpayable",
      "type": "function"
    },
    {
      "inputs": [
        {
          "internalType": "uint256",
          "name": "amountOut",
          "type": "uint256"
        },
        {
          "internalType": "uint256",
          "name": "amountInMax",
          "type": "uint256"
        },
        {
          "internalType": "address[]",
          "name": "path",
          "type": "address[]"
        },
        {
          "internalType": "address",
          "name": "to",
          "type": "address"
        },
        {
          "internalType": "uint256",
          "name": "deadline",
          "type": "uint256"
        }
      ],
      "name": "swapTokensForExactTokens",
      "outputs": [
        {
          "internalType": "uint256[]",
          "name": "amounts",
          "type": "uint256[]"
        }
      ],
      "stateMutability": "nonpayable",
      "type": "function"
    }
  ],
  "bytecode": "0x60a060405234801561001057600080fd5b50604051613c3a380380613c3a83398101604081905261002f91610040565b6001600160a01b0316608052610070565b60006020828403121561005257600080fd5b81516001600160a01b038116811461006957600080fd5b9392505050565b608051613b5b6100df60003960008181610162015281816101f9015281816102590152818161036c015281816104f7015281816106f8015281816108e301528181610959015281816109fb01528181610aa8015281816111a40152818161128b01526115870152613b5b6000f3fe608060405234801561001057600080fd5b506004361061009e5760003560e01c8063ad615dec11610066578063ad615dec14610122578063baa2abde14610135578063c45a01551461015d578063d06ca61f1461019c578063e8e33700146101af57600080fd5b8063054d50d4146100a35780631f00ca74146100c957806338ed1739146100e957806385f8c259146100fc5780638803dbee1461010f575b600080fd5b6100b66100b1366004611822565b6101dd565b6040519081526020015b60405180910390f35b6100dc6100d736600461188c565b6101f2565b6040516100c09190611968565b6100dc6100f73660046119ab565b610228565b6100b661010a366004611822565b6104c2565b6100dc61011d3660046119ab565b6104cf565b6100b6610130366004611822565b6105cc565b610148610143366004611a51565b6106aa565b604080519283526020830191909152016100c0565b6101847f000000000000000000000000000000000000000000000000000000000000000081565b6040516001600160a01b0390911681526020016100c0565b6100dc6101aa36600461188c565b6108dc565b6101c26101bd366004611ac4565b610909565b604080519384526020840192909252908201526060016100c0565b60006101ea848484610bab565b949350505050565b606061021f7f00000000000000000000000000000000000000000000000000000000000000008484610c8a565b90505b92915050565b606081428110156102545760405162461bcd60e51b815260040161024b90611b40565b60405180910390fd5b6102b27f000000000000000000000000000000000000000000000000000000000000000089888880806020026020016040519081016040528093929190818152602001838360200280828437600092019190915250610e2092505050565b91508682600184516102c49190611b8d565b815181106102d4576102d4611ba0565b6020026020010151101561033e5760405162461bcd60e51b815260206004820152602b60248201527f556e69737761705632526f757465723a20494e53554646494349454e545f4f5560448201526a1514155517d05353d5539560aa1b606482015260840161024b565b6104788686600081811061035457610354611ba0565b90506020020160208101906103699190611bb6565b337f00000000000000000000000000000000000000000000000000000000000000006001600160a01b031663e6a439058a8a60008181106103ac576103ac611ba0565b90506020020160208101906103c19190611bb6565b8b8b60018181106103d4576103d4611ba0565b90506020020160208101906103e99190611bb6565b6040516001600160e01b031960e085901b1681526001600160a01b03928316600482015291166024820152604401602060405180830381865afa158015610434573d6000803e3d6000fd5b505050506040513d601f19601f820116820180604052508101906104589190611bda565b8560008151811061046b5761046b611ba0565b6020026020010151610f8a565b6104b7828787808060200260200160405190810160405280939291908181526020018383602002808284376000920191909152508992506110bc915050565b509695505050505050565b60006101ea8484846113a0565b606081428110156104f25760405162461bcd60e51b815260040161024b90611b40565b6105507f000000000000000000000000000000000000000000000000000000000000000089888880806020026020016040519081016040528093929190818152602001838360200280828437600092019190915250610c8a92505050565b9150868260008151811061056657610566611ba0565b6020026020010151111561033e5760405162461bcd60e51b815260206004820152602760248201527f556e69737761705632526f757465723a204558434553534956455f494e50555460448201526617d05353d5539560ca1b606482015260840161024b565b60008084116106295760405162461bcd60e51b8152602060048201526024808201527f556e69737761705632526f757465723a20494e53554646494349454e545f414d60448201526313d5539560e21b606482015260840161024b565b6000831180156106395750600082115b6106955760405162461bcd60e51b815260206004820152602760248201527f556e69737761705632526f757465723a20494e53554646494349454e545f4c496044820152665155494449545960c81b606482015260840161024b565b826106a08386611bf7565b6101ea9190611c0e565b60008082428110156106ce5760405162461bcd60e51b815260040161024b90611b40565b60405163e6a4390560e01b81526001600160a01b038b811660048301528a811660248301526000917f00000000000000000000000000000000000000000000000000000000000000009091169063e6a4390590604401602060405180830381865afa158015610741573d6000803e3d6000fd5b505050506040513d601f19601f820116820180604052508101906107659190611bda565b6040516323b872dd60e01b81523360048201526001600160a01b03821660248201819052604482018c90529192506323b872dd906064016020604051808303816000875af11580156107bb573d6000803e3d6000fd5b505050506040513d601f19601f820116820180604052508101906107df9190611c30565b5060405163226bf2d160e21b81526001600160a01b03878116600483015260009182918416906389afcb449060240160408051808303816000875af115801561082c573d6000803e3d6000fd5b505050506040513d601f19601f820116820180604052508101906108509190611c52565b9150915060006108608e8e611485565b509050806001600160a01b03168e6001600160a01b031614610883578183610886565b82825b90975095508a8710156108ab5760405162461bcd60e51b815260040161024b90611c76565b898610156108cb5760405162461bcd60e51b815260040161024b90611cbc565b505050505097509795505050505050565b606061021f7f00000000000000000000000000000000000000000000000000000000000000008484610e20565b6000806000834281101561092f5760405162461bcd60e51b815260040161024b90611b40565b60405163e6a4390560e01b81526001600160a01b038d811660048301528c811660248301526000917f00000000000000000000000000000000000000000000000000000000000000009091169063e6a4390590604401602060405180830381865afa1580156109a2573d6000803e3d6000fd5b505050506040513d601f19601f820116820180604052508101906109c69190611bda565b6001600160a01b031603610a6a576040516364e329cb60e11b81526001600160a01b038d811660048301528c811660248301527f0000000000000000000000000000000000000000000000000000000000000000169063c9c65396906044016020604051808303816000875af1158015610a44573d6000803e3d6000fd5b505050506040513d601f19601f82011682018060405250810190610a689190611bda565b505b610a788c8c8c8c8c8c61157c565b60405163e6a4390560e01b81526001600160a01b038f811660048301528e811660248301529296509094506000917f0000000000000000000000000000000000000000000000000000000000000000169063e6a4390590604401602060405180830381865afa158015610aef573d6000803e3d6000fd5b505050506040513d601f19601f82011682018060405250810190610b139190611bda565b9050610b218d338388610f8a565b610b2d8c338387610f8a565b6040516335313c2160e11b81526001600160a01b038881166004830152821690636a627842906024016020604051808303816000875af1158015610b75573d6000803e3d6000fd5b505050506040513d601f19601f82011682018060405250810190610b999190611d02565b92505050985098509895505050505050565b6000808411610c105760405162461bcd60e51b815260206004820152602b60248201527f556e697377617056324c6962726172793a20494e53554646494349454e545f4960448201526a1394155517d05353d5539560aa1b606482015260840161024b565b600083118015610c205750600082115b610c3c5760405162461bcd60e51b815260040161024b90611d1b565b6000610c4a856103e5611bf7565b90506000610c588483611bf7565b9050600082610c69876103e8611bf7565b610c739190611d63565b9050610c7f8183611c0e565b979650505050505050565b6060600282511015610cde5760405162461bcd60e51b815260206004820152601e60248201527f556e697377617056324c6962726172793a20494e56414c49445f504154480000604482015260640161024b565b815167ffffffffffffffff811115610cf857610cf861184e565b604051908082528060200260200182016040528015610d21578160200160208202803683370190505b509050828160018351610d349190611b8d565b81518110610d4457610d44611ba0565b602002602001018181525050600060018351610d609190611b8d565b90505b8015610e1857600080610db38786610d7c600187611b8d565b81518110610d8c57610d8c611ba0565b6020026020010151878681518110610da657610da6611ba0565b6020026020010151611664565b91509150610ddb848481518110610dcc57610dcc611ba0565b602002602001015183836113a0565b84610de7600186611b8d565b81518110610df757610df7611ba0565b60200260200101818152505050508080610e1090611d76565b915050610d63565b509392505050565b6060600282511015610e745760405162461bcd60e51b815260206004820152601e60248201527f556e697377617056324c6962726172793a20494e56414c49445f504154480000604482015260640161024b565b815167ffffffffffffffff811115610e8e57610e8e61184e565b604051908082528060200260200182016040528015610eb7578160200160208202803683370190505b5090508281600081518110610ece57610ece611ba0565b60200260200101818152505060005b60018351610eeb9190611b8d565b811015610e1857600080610f3187868581518110610f0b57610f0b611ba0565b602002602001015187866001610f219190611d63565b81518110610da657610da6611ba0565b91509150610f59848481518110610f4a57610f4a611ba0565b60200260200101518383610bab565b84610f65856001611d63565b81518110610f7557610f75611ba0565b60209081029190910101525050600101610edd565b604080516001600160a01b0385811660248301528481166044830152606480830185905283518084039091018152608490920183526020820180516001600160e01b03166323b872dd60e01b1790529151600092839290881691610fee9190611db1565b6000604051808303816000865af19150503d806000811461102b576040519150601f19603f3d011682016040523d82523d6000602084013e611030565b606091505b509150915081801561105a57508051158061105a57508080602001905181019061105a9190611c30565b6110b45760405162461bcd60e51b815260206004820152602560248201527f556e69737761705632526f757465723a205452414e534645525f46524f4d5f46604482015264105253115160da1b606482015260840161024b565b505050505050565b60005b600183516110cd9190611b8d565b81101561139a576000808483815181106110e9576110e9611ba0565b6020026020010151858460016110ff9190611d63565b8151811061110f5761110f611ba0565b60200260200101519150915060006111278383611485565b509050600087611138866001611d63565b8151811061114857611148611ba0565b60200260200101519050600080836001600160a01b0316866001600160a01b0316146111765782600061117a565b6000835b91509150600060028a5161118e9190611b8d565b881061119a5788611261565b6001600160a01b037f00000000000000000000000000000000000000000000000000000000000000001663e6a43905878c6111d68c6002611d63565b815181106111e6576111e6611ba0565b60200260200101516040518363ffffffff1660e01b81526004016112209291906001600160a01b0392831681529116602082015260400190565b602060405180830381865afa15801561123d573d6000803e3d6000fd5b505050506040513d601f19601f820116820180604052508101906112619190611bda565b60405163e6a4390560e01b81526001600160a01b03898116600483015288811660248301529192507f00000000000000000000000000000000000000000000000000000000000000009091169063e6a4390590604401602060405180830381865afa1580156112d4573d6000803e3d6000fd5b505050506040513d601f19601f820116820180604052508101906112f89190611bda565b6001600160a01b031663022c0d9f84848460006040519080825280601f01601f191660200182016040528015611335576020820181803683370190505b506040518563ffffffff1660e01b81526004016113559493929190611dcd565b600060405180830381600087803b15801561136f57600080fd5b505af1158015611383573d6000803e3d6000fd5b5050600190990198506110bf975050505050505050565b50505050565b60008084116114065760405162461bcd60e51b815260206004820152602c60248201527f556e697377617056324c6962726172793a20494e53554646494349454e545f4f60448201526b155514155517d05353d5539560a21b606482015260840161024b565b6000831180156114165750600082115b6114325760405162461bcd60e51b815260040161024b90611d1b565b600061143e8585611bf7565b61144a906103e8611bf7565b905060006114588685611b8d565b611464906103e5611bf7565b90506114708183611c0e565b61147b906001611d63565b9695505050505050565b600080826001600160a01b0316846001600160a01b0316036114f75760405162461bcd60e51b815260206004820152602560248201527f556e697377617056324c6962726172793a204944454e544943414c5f41444452604482015264455353455360d81b606482015260840161024b565b826001600160a01b0316846001600160a01b03161061151757828461151a565b83835b90925090506001600160a01b0382166115755760405162461bcd60e51b815260206004820152601e60248201527f556e697377617056324c6962726172793a205a45524f5f414444524553530000604482015260640161024b565b9250929050565b6000806000806115ad7f00000000000000000000000000000000000000000000000000000000000000008b8b611664565b915091508160001480156115bf575080155b156115cf57879350869250611657565b60006115dc8984846105cc565b905087811161161057858110156116055760405162461bcd60e51b815260040161024b90611cbc565b889450925082611655565b600061161d8984866105cc565b90508981111561162f5761162f611e1d565b8781101561164f5760405162461bcd60e51b815260040161024b90611c76565b94508793505b505b5050965096945050505050565b60008060006116738585611485565b50905060008061168488888861172e565b6001600160a01b0316630902f1ac6040518163ffffffff1660e01b8152600401606060405180830381865afa1580156116c1573d6000803e3d6000fd5b505050506040513d601f19601f820116820180604052508101906116e59190611e4a565b506001600160701b031691506001600160701b03169150826001600160a01b0316876001600160a01b03161461171c57808261171f565b81815b90999098509650505050505050565b600080600061173d8585611485565b6040516bffffffffffffffffffffffff19606084811b8216602084015283901b16603482015291935091508690604801604051602081830303815290604052805190602001206040518060200161179390611815565b6020820181038252601f19601f82011660405250805190602001206040516020016117f3939291906001600160f81b0319815260609390931b6bffffffffffffffffffffffff191660018401526015830191909152603582015260550190565b60408051601f1981840301815291905280516020909101209695505050505050565b611c8b80611e9b83390190565b60008060006060848603121561183757600080fd5b505081359360208301359350604090920135919050565b634e487b7160e01b600052604160045260246000fd5b6001600160a01b038116811461187957600080fd5b50565b803561188781611864565b919050565b6000806040838503121561189f57600080fd5b82359150602083013567ffffffffffffffff8111156118bd57600080fd5b8301601f810185136118ce57600080fd5b803567ffffffffffffffff8111156118e8576118e861184e565b8060051b604051601f19603f830116810181811067ffffffffffffffff821117156119155761191561184e565b60405291825260208184018101929081018884111561193357600080fd5b6020850194505b838510156119595761194b8561187c565b81526020948501940161193a565b50809450505050509250929050565b602080825282518282018190526000918401906040840190835b818110156119a0578351835260209384019390920191600101611982565b509095945050505050565b60008060008060008060a087890312156119c457600080fd5b8635955060208701359450604087013567ffffffffffffffff8111156119e957600080fd5b8701601f810189136119fa57600080fd5b803567ffffffffffffffff811115611a1157600080fd5b8960208260051b8401011115611a2657600080fd5b60209190910194509250611a3c6060880161187c565b95989497509295919493608090920135925050565b600080600080600080600060e0888a031215611a6c57600080fd5b8735611a7781611864565b96506020880135611a8781611864565b955060408801359450606088013593506080880135925060a0880135611aac81611864565b96999598509396929591949193505060c09091013590565b600080600080600080600080610100898b031215611ae157600080fd5b8835611aec81611864565b97506020890135611afc81611864565b965060408901359550606089013594506080890135935060a0890135925060c0890135611b2881611864565b979a969950949793969295919450919260e001359150565b60208082526018908201527f556e69737761705632526f757465723a20455850495245440000000000000000604082015260600190565b634e487b7160e01b600052601160045260246000fd5b8181038181111561022257610222611b77565b634e487b7160e01b600052603260045260246000fd5b600060208284031215611bc857600080fd5b8135611bd381611864565b9392505050565b600060208284031215611bec57600080fd5b8151611bd381611864565b808202811582820484141761022257610222611b77565b600082611c2b57634e487b7160e01b600052601260045260246000fd5b500490565b600060208284031215611c4257600080fd5b81518015158114611bd357600080fd5b60008060408385031215611c6557600080fd5b505080516020909101519092909150565b60208082526026908201527f556e69737761705632526f757465723a20494e53554646494349454e545f415f604082015265105353d5539560d21b606082015260800190565b60208082526026908201527f556e69737761705632526f757465723a20494e53554646494349454e545f425f604082015265105353d5539560d21b606082015260800190565b600060208284031215611d1457600080fd5b5051919050565b60208082526028908201527f556e697377617056324c6962726172793a20494e53554646494349454e545f4c604082015267495155494449545960c01b606082015260800190565b8082018082111561022257610222611b77565b600081611d8557611d85611b77565b506000190190565b60005b83811015611da8578181015183820152602001611d90565b50506000910152565b60008251611dc3818460208701611d8d565b9190910192915050565b84815283602082015260018060a01b03831660408201526080606082015260008251806080840152611e068160a0850160208701611d8d565b601f01601f19169190910160a00195945050505050565b634e487b7160e01b600052600160045260246000fd5b80516001600160701b038116811461188757600080fd5b600080600060608486031215611e5f57600080fd5b611e6884611e33565b9250611e7660208501611e33565b9150604084015163ffffffff81168114611e8f57600080fd5b80915050925092509256fe6080604052600160095534801561001557600080fd5b50604051806040016040528060128152602001712ab734b9bbb0b82b19102628102a37b5b2b760711b815250604051806040016040528060068152602001652aa72496ab1960d11b815250816003908161006f9190610135565b50600461007c8282610135565b5050600580546001600160a01b03191633179055506101f3565b634e487b7160e01b600052604160045260246000fd5b600181811c908216806100c057607f821691505b6020821081036100e057634e487b7160e01b600052602260045260246000fd5b50919050565b601f82111561013057806000526020600020601f840160051c8101602085101561010d5750805b601f840160051c820191505b8181101561012d5760008155600101610119565b50505b505050565b81516001600160401b0381111561014e5761014e610096565b6101628161015c84546100ac565b846100e6565b6020601f821160018114610196576000831561017e5750848201515b600019600385901b1c1916600184901b17845561012d565b600084815260208120601f198516915b828110156101c657878501518255602094850194600190920191016101a6565b50848210156101e45786840151600019600387901b60f8161c191681555b50505050600190811b01905550565b611a89806102026000396000f3fe608060405234801561001057600080fd5b506004361061012c5760003560e01c806370a08231116100ad578063bc25cf7711610071578063bc25cf77146102b5578063c45a0155146102c8578063d21220a7146102db578063dd62ed3e146102ee578063fff6cae91461032757600080fd5b806370a082311461024057806389afcb441461026957806395d89b4114610291578063a9059cbb14610299578063ba9a7a56146102ac57600080fd5b806318160ddd116100f457806318160ddd146101e657806323b872dd146101f8578063313ce5671461020b578063485cc9551461021a5780636a6278421461022d57600080fd5b8063022c0d9f1461013157806306fdde03146101465780630902f1ac14610164578063095ea7b3146101985780630dfe1681146101bb575b600080fd5b61014461013f36600461176a565b61032f565b005b61014e6107da565b60405161015b9190611824565b60405180910390f35b61016c61086c565b604080516001600160701b03948516815293909216602084015263ffffffff169082015260600161015b565b6101ab6101a6366004611857565b610896565b604051901515815260200161015b565b6006546101ce906001600160a01b031681565b6040516001600160a01b03909116815260200161015b565b6002545b60405190815260200161015b565b6101ab610206366004611881565b6108b0565b6040516012815260200161015b565b6101446102283660046118be565b6108d4565b6101ea61023b3660046118f1565b610953565b6101ea61024e3660046118f1565b6001600160a01b031660009081526020819052604090205490565b61027c6102773660046118f1565b610bf0565b6040805192835260208301919091520161015b565b61014e610f0b565b6101ab6102a7366004611857565b610f1a565b6101ea6103e881565b6101446102c33660046118f1565b610f28565b6005546101ce906001600160a01b031681565b6007546101ce906001600160a01b031681565b6101ea6102fc3660046118be565b6001600160a01b03918216600090815260016020908152604080832093909416825291909152205490565b61014461103b565b60095460011461035a5760405162461bcd60e51b81526004016103519061190c565b60405180910390fd5b60006009558415158061036d5750600084115b6103c75760405162461bcd60e51b815260206004820152602560248201527f556e697377617056323a20494e53554646494349454e545f4f55545055545f416044820152641353d5539560da1b6064820152608401610351565b6000806103d261086c565b5091509150816001600160701b0316871080156103f75750806001600160701b031686105b61044d5760405162461bcd60e51b815260206004820152602160248201527f556e697377617056323a20494e53554646494349454e545f4c495155494449546044820152605960f81b6064820152608401610351565b60065460075460009182916001600160a01b0391821691908116908916821480159061048b5750806001600160a01b0316896001600160a01b031614155b6104cf5760405162461bcd60e51b8152602060048201526015602482015274556e697377617056323a20494e56414c49445f544f60581b6044820152606401610351565b8a156104e0576104e0828a8d611148565b89156104f1576104f1818a8c611148565b6040516370a0823160e01b81523060048201526001600160a01b038316906370a0823190602401602060405180830381865afa158015610535573d6000803e3d6000fd5b505050506040513d601f19601f820116820180604052508101906105599190611937565b6040516370a0823160e01b81523060048201529094506001600160a01b038216906370a0823190602401602060405180830381865afa1580156105a0573d6000803e3d6000fd5b505050506040513d601f19601f820116820180604052508101906105c49190611937565b92505050600089856001600160701b03166105df9190611966565b83116105ec576000610609565b6105ff8a6001600160701b038716611966565b6106099084611966565b905060006106208a6001600160701b038716611966565b831161062d57600061064a565b6106408a6001600160701b038716611966565b61064a9084611966565b9050600082118061065b5750600081115b6106b35760405162461bcd60e51b8152602060048201526024808201527f556e697377617056323a20494e53554646494349454e545f494e5055545f414d60448201526313d5539560e21b6064820152608401610351565b60006106c0836003611979565b6106cc866103e8611979565b6106d69190611966565b905060006106e5836003611979565b6106f1866103e8611979565b6106fb9190611966565b90506107136001600160701b03808916908a16611979565b61072090620f4240611979565b61072a8284611979565b10156107675760405162461bcd60e51b815260206004820152600c60248201526b556e697377617056323a204b60a01b6044820152606401610351565b50506107738484611263565b60408051838152602081018390529081018c9052606081018b90526001600160a01b038a169033907fd78ad95fa46c994b6551d0da85fc275fe613ce37657fb8d5e3d130840159d8229060800160405180910390a350506001600955505050505050505050565b6060600380546107e990611990565b80601f016020809104026020016040519081016040528092919081815260200182805461081590611990565b80156108625780601f1061083757610100808354040283529160200191610862565b820191906000526020600020905b81548152906001019060200180831161084557829003601f168201915b5050505050905090565b6008546001600160701b0380821692600160701b830490911691600160e01b900463ffffffff1690565b6000336108a481858561136c565b60019150505b92915050565b6000336108be85828561137e565b6108c98585856113fd565b506001949350505050565b6005546001600160a01b031633146109255760405162461bcd60e51b81526020600482015260146024820152732ab734b9bbb0b82b191d102327a92124a22222a760611b6044820152606401610351565b600680546001600160a01b039384166001600160a01b03199182161790915560078054929093169116179055565b60006009546001146109775760405162461bcd60e51b81526004016103519061190c565b600060098190558061098761086c565b506006546040516370a0823160e01b81523060048201529294509092506000916001600160a01b03909116906370a0823190602401602060405180830381865afa1580156109d9573d6000803e3d6000fd5b505050506040513d601f19601f820116820180604052508101906109fd9190611937565b6007546040516370a0823160e01b81523060048201529192506000916001600160a01b03909116906370a0823190602401602060405180830381865afa158015610a4b573d6000803e3d6000fd5b505050506040513d601f19601f82011682018060405250810190610a6f9190611937565b90506000610a866001600160701b03861684611966565b90506000610a9d6001600160701b03861684611966565b90506000610aaa60025490565b905080600003610ae7576103e8610ac9610ac48486611979565b61145c565b610ad39190611966565b9750610ae260016103e86114cc565b610b2e565b610b2b6001600160701b038816610afe8386611979565b610b0891906119da565b6001600160701b038816610b1c8486611979565b610b2691906119da565b611506565b97505b60008811610b8f5760405162461bcd60e51b815260206004820152602860248201527f556e697377617056323a20494e53554646494349454e545f4c495155494449546044820152671657d3525395115160c21b6064820152608401610351565b610b9989896114cc565b610ba38585611263565b604080518481526020810184905233917f4c209b5fc8ad50758f13e2e1088ba56a560dff690a1c6fef26394f4c03821c4f910160405180910390a250506001600955509395945050505050565b600080600954600114610c155760405162461bcd60e51b81526004016103519061190c565b600060098190556006546007546040516370a0823160e01b81523060048201526001600160a01b039283169392909116919083906370a0823190602401602060405180830381865afa158015610c6f573d6000803e3d6000fd5b505050506040513d601f19601f82011682018060405250810190610c939190611937565b6040516370a0823160e01b81523060048201529091506000906001600160a01b038416906370a0823190602401602060405180830381865afa158015610cdd573d6000803e3d6000fd5b505050506040513d601f19601f82011682018060405250810190610d019190611937565b306000908152602081905260409020546002549192509080610d238584611979565b610d2d91906119da565b975080610d3a8484611979565b610d4491906119da565b9650600088118015610d565750600087115b610db35760405162461bcd60e51b815260206004820152602860248201527f556e697377617056323a20494e53554646494349454e545f4c495155494449546044820152671657d0955493915160c21b6064820152608401610351565b610dbd308361151e565b610dc8868a8a611148565b610dd3858a89611148565b6040516370a0823160e01b81523060048201526001600160a01b038716906370a0823190602401602060405180830381865afa158015610e17573d6000803e3d6000fd5b505050506040513d601f19601f82011682018060405250810190610e3b9190611937565b6040516370a0823160e01b81523060048201529094506001600160a01b038616906370a0823190602401602060405180830381865afa158015610e82573d6000803e3d6000fd5b505050506040513d601f19601f82011682018060405250810190610ea69190611937565b9250610eb28484611263565b60408051898152602081018990526001600160a01b038b169133917fdccd412f0b1252819cb1fd330b93224ca42612892bb3f4f789976e6d81936496910160405180910390a35050505050506001600981905550915091565b6060600480546107e990611990565b6000336108a48185856113fd565b600954600114610f4a5760405162461bcd60e51b81526004016103519061190c565b60006009556006546007546008546040516370a0823160e01b81523060048201526001600160a01b039384169390921691610fe991849186916001600160701b03169083906370a08231906024015b602060405180830381865afa158015610fb6573d6000803e3d6000fd5b505050506040513d601f19601f82011682018060405250810190610fda9190611937565b610fe49190611966565b611148565b6008546040516370a0823160e01b81523060048201526110319183918691600160701b90046001600160701b0316906001600160a01b038416906370a0823190602401610f99565b5050600160095550565b60095460011461105d5760405162461bcd60e51b81526004016103519061190c565b60006009556006546040516370a0823160e01b8152306004820152611141916001600160a01b0316906370a0823190602401602060405180830381865afa1580156110ac573d6000803e3d6000fd5b505050506040513d601f19601f820116820180604052508101906110d09190611937565b6007546040516370a0823160e01b81523060048201526001600160a01b03909116906370a0823190602401602060405180830381865afa158015611118573d6000803e3d6000fd5b505050506040513d601f19601f8201168201806040525081019061113c9190611937565b611263565b6001600955565b604080516001600160a01b038481166024830152604480830185905283518084039091018152606490920183526020820180516001600160e01b031663a9059cbb60e01b17905291516000928392908716916111a491906119ee565b6000604051808303816000865af19150503d80600081146111e1576040519150601f19603f3d011682016040523d82523d6000602084013e6111e6565b606091505b50915091508180156112105750805115806112105750808060200190518101906112109190611a0a565b61125c5760405162461bcd60e51b815260206004820152601a60248201527f556e697377617056323a205452414e534645525f4641494c45440000000000006044820152606401610351565b5050505050565b6001600160701b03821180159061128157506001600160701b038111155b6112c35760405162461bcd60e51b8152602060048201526013602482015272556e697377617056323a204f564552464c4f5760681b6044820152606401610351565b60006112d464010000000042611a2c565b6008805463ffffffff8316600160e01b026001600160e01b036001600160701b03878116600160701b9081026001600160e01b03199095168a83161794909417918216831794859055604080519382169282169290921783529290930490911660208201529192507f1c411e9a96e071241c2f21f7726b17ae89e3cab4c78be50e062b03a9fffbbad1910160405180910390a1505050565b6113798383836001611554565b505050565b6001600160a01b038381166000908152600160209081526040808320938616835292905220546000198110156113f757818110156113e857604051637dc7a0d960e11b81526001600160a01b03841660048201526024810182905260448101839052606401610351565b6113f784848484036000611554565b50505050565b6001600160a01b03831661142757604051634b637e8f60e11b815260006004820152602401610351565b6001600160a01b0382166114515760405163ec442f0560e01b815260006004820152602401610351565b611379838383611629565b600060038211156114bd57508060006114766002836119da565b611481906001611a40565b90505b818110156114b75790508060028161149c81866119da565b6114a69190611a40565b6114b091906119da565b9050611484565b50919050565b81156114c7575060015b919050565b6001600160a01b0382166114f65760405163ec442f0560e01b815260006004820152602401610351565b61150260008383611629565b5050565b60008183106115155781611517565b825b9392505050565b6001600160a01b03821661154857604051634b637e8f60e11b815260006004820152602401610351565b61150282600083611629565b6001600160a01b03841661157e5760405163e602df0560e01b815260006004820152602401610351565b6001600160a01b0383166115a857604051634a1406b160e11b815260006004820152602401610351565b6001600160a01b03808516600090815260016020908152604080832093871683529290522082905580156113f757826001600160a01b0316846001600160a01b03167f8c5be1e5ebec7d5bd14f71427d1e84f3dd0314c0f7b2291e5b200ac8c7c3b9258460405161161b91815260200190565b60405180910390a350505050565b6001600160a01b0383166116545780600260008282546116499190611a40565b909155506116c69050565b6001600160a01b038316600090815260208190526040902054818110156116a75760405163391434e360e21b81526001600160a01b03851660048201526024810182905260448101839052606401610351565b6001600160a01b03841660009081526020819052604090209082900390555b6001600160a01b0382166116e257600280548290039055611701565b6001600160a01b03821660009081526020819052604090208054820190555b816001600160a01b0316836001600160a01b03167fddf252ad1be2c89b69c2b068fc378daa952ba7f163c4a11628f55a4df523b3ef8360405161174691815260200190565b60405180910390a3505050565b80356001600160a01b03811681146114c757600080fd5b60008060008060006080868803121561178257600080fd5b853594506020860135935061179960408701611753565b9250606086013567ffffffffffffffff8111156117b557600080fd5b8601601f810188136117c657600080fd5b803567ffffffffffffffff8111156117dd57600080fd5b8860208284010111156117ef57600080fd5b959894975092955050506020019190565b60005b8381101561181b578181015183820152602001611803565b50506000910152565b6020815260008251806020840152611843816040850160208701611800565b601f01601f19169190910160400192915050565b6000806040838503121561186a57600080fd5b61187383611753565b946020939093013593505050565b60008060006060848603121561189657600080fd5b61189f84611753565b92506118ad60208501611753565b929592945050506040919091013590565b600080604083850312156118d157600080fd5b6118da83611753565b91506118e860208401611753565b90509250929050565b60006020828403121561190357600080fd5b61151782611753565b602080825260119082015270155b9a5cddd85c158c8e881313d0d2d151607a1b604082015260600190565b60006020828403121561194957600080fd5b5051919050565b634e487b7160e01b600052601160045260246000fd5b818103818111156108aa576108aa611950565b80820281158282048414176108aa576108aa611950565b600181811c908216806119a457607f821691505b6020821081036114b757634e487b7160e01b600052602260045260246000fd5b634e487b7160e01b600052601260045260246000fd5b6000826119e9576119e96119c4565b500490565b60008251611a00818460208701611800565b9190910192915050565b600060208284031215611a1c57600080fd5b8151801515811461151757600080fd5b600082611a3b57611a3b6119c4565b500690565b808201808211156108aa576108aa61195056fea264697066735822122000f5571a22e873a0f7a6d224438d82bb8f8dfb8694b7abdb26950153faffda9464736f6c634300081c0033a2646970667358221220924c9af91d55aa02f76c3ca41e69114e281a77c4d02b4e1ffdd7fb31073df2a264736f6c634300081c0033",
  "linkReferences": {},
  "deployedLinkReferences": {}
}